{
    "_format": "hh-sol-artifact-1",
    "contractName": "Escrow",
    "sourceName": "contracts/Escrow.sol",
    "abi": [
        {
            "inputs": [
                {
                    "internalType": "address",
                    "name": "_nftAddress",
                    "type": "address"
                },
                {
                    "internalType": "address payable",
                    "name": "_seller",
                    "type": "address"
                },
                {
                    "internalType": "address",
                    "name": "_inspector",
                    "type": "address"
                },
                {
                    "internalType": "address",
                    "name": "_lender",
                    "type": "address"
                }
            ],
            "stateMutability": "nonpayable",
            "type": "constructor"
        },
        {
            "inputs": [
                {
                    "internalType": "uint256",
                    "name": "",
                    "type": "uint256"
                },
                {
                    "internalType": "address",
                    "name": "",
                    "type": "address"
                }
            ],
            "name": "approval",
            "outputs": [
                {
                    "internalType": "bool",
                    "name": "",
                    "type": "bool"
                }
            ],
            "stateMutability": "view",
            "type": "function"
        },
        {
            "inputs": [
                {
                    "internalType": "uint256",
                    "name": "_nftID",
                    "type": "uint256"
                }
            ],
            "name": "approveSale",
            "outputs": [],
            "stateMutability": "nonpayable",
            "type": "function"
        },
        {
            "inputs": [
                {
                    "internalType": "uint256",
                    "name": "",
                    "type": "uint256"
                }
            ],
            "name": "buyer",
            "outputs": [
                {
                    "internalType": "address",
                    "name": "",
                    "type": "address"
                }
            ],
            "stateMutability": "view",
            "type": "function"
        },
        {
            "inputs": [
                {
                    "internalType": "uint256",
                    "name": "_nftID",
                    "type": "uint256"
                }
            ],
            "name": "depositEarnest",
            "outputs": [],
            "stateMutability": "payable",
            "type": "function"
        },
        {
            "inputs": [
                {
                    "internalType": "uint256",
                    "name": "",
                    "type": "uint256"
                }
            ],
            "name": "escrowAmount",
            "outputs": [
                {
                    "internalType": "uint256",
                    "name": "",
                    "type": "uint256"
                }
            ],
            "stateMutability": "view",
            "type": "function"
        },
        {
            "inputs": [
                {
                    "internalType": "uint256",
                    "name": "_nftID",
                    "type": "uint256"
                }
            ],
            "name": "finalizeSale",
            "outputs": [],
            "stateMutability": "nonpayable",
            "type": "function"
        },
        {
            "inputs": [],
            "name": "getBalance",
            "outputs": [
                {
                    "internalType": "uint256",
                    "name": "",
                    "type": "uint256"
                }
            ],
            "stateMutability": "view",
            "type": "function"
        },
        {
            "inputs": [
                {
                    "internalType": "uint256",
                    "name": "",
                    "type": "uint256"
                }
            ],
            "name": "inspectionPassed",
            "outputs": [
                {
                    "internalType": "bool",
                    "name": "",
                    "type": "bool"
                }
            ],
            "stateMutability": "view",
            "type": "function"
        },
        {
            "inputs": [],
            "name": "inspector",
            "outputs": [
                {
                    "internalType": "address",
                    "name": "",
                    "type": "address"
                }
            ],
            "stateMutability": "view",
            "type": "function"
        },
        {
            "inputs": [
                {
                    "internalType": "uint256",
                    "name": "",
                    "type": "uint256"
                }
            ],
            "name": "isListed",
            "outputs": [
                {
                    "internalType": "bool",
                    "name": "",
                    "type": "bool"
                }
            ],
            "stateMutability": "view",
            "type": "function"
        },
        {
            "inputs": [],
            "name": "lender",
            "outputs": [
                {
                    "internalType": "address",
                    "name": "",
                    "type": "address"
                }
            ],
            "stateMutability": "view",
            "type": "function"
        },
        {
            "inputs": [
                {
                    "internalType": "uint256",
                    "name": "_nftID",
                    "type": "uint256"
                },
                {
                    "internalType": "uint256",
                    "name": "_purchasePrice",
                    "type": "uint256"
                },
                {
                    "internalType": "address",
                    "name": "_buyer",
                    "type": "address"
                },
                {
                    "internalType": "uint256",
                    "name": "_escrowAmount",
                    "type": "uint256"
                }
            ],
            "name": "list",
            "outputs": [],
            "stateMutability": "payable",
            "type": "function"
        },
        {
            "inputs": [],
            "name": "nftAddress",
            "outputs": [
                {
                    "internalType": "address",
                    "name": "",
                    "type": "address"
                }
            ],
            "stateMutability": "view",
            "type": "function"
        },
        {
            "inputs": [
                {
                    "internalType": "uint256",
                    "name": "",
                    "type": "uint256"
                }
            ],
            "name": "purchasePrice",
            "outputs": [
                {
                    "internalType": "uint256",
                    "name": "",
                    "type": "uint256"
                }
            ],
            "stateMutability": "view",
            "type": "function"
        },
        {
            "inputs": [],
            "name": "seller",
            "outputs": [
                {
                    "internalType": "address payable",
                    "name": "",
                    "type": "address"
                }
            ],
            "stateMutability": "view",
            "type": "function"
        },
        {
            "inputs": [
                {
                    "internalType": "uint256",
                    "name": "_nftID",
                    "type": "uint256"
                },
                {
                    "internalType": "bool",
                    "name": "_passed",
                    "type": "bool"
                }
            ],
            "name": "updateInspectionStatus",
            "outputs": [],
            "stateMutability": "nonpayable",
            "type": "function"
        },
        {
            "stateMutability": "payable",
            "type": "receive"
        }
    ],
    "bytecode": "0x60806040523480156200001157600080fd5b50604051620013f4380380620013f48339818101604052810190620000379190620001f3565b83600360006101000a81548173ffffffffffffffffffffffffffffffffffffffff021916908373ffffffffffffffffffffffffffffffffffffffff16021790555082600260006101000a81548173ffffffffffffffffffffffffffffffffffffffff021916908373ffffffffffffffffffffffffffffffffffffffff16021790555081600160006101000a81548173ffffffffffffffffffffffffffffffffffffffff021916908373ffffffffffffffffffffffffffffffffffffffff160217905550806000806101000a81548173ffffffffffffffffffffffffffffffffffffffff021916908373ffffffffffffffffffffffffffffffffffffffff1602179055505050505062000265565b600080fd5b600073ffffffffffffffffffffffffffffffffffffffff82169050919050565b6000620001768262000149565b9050919050565b620001888162000169565b81146200019457600080fd5b50565b600081519050620001a8816200017d565b92915050565b6000620001bb8262000149565b9050919050565b620001cd81620001ae565b8114620001d957600080fd5b50565b600081519050620001ed81620001c2565b92915050565b6000806000806080858703121562000210576200020f62000144565b5b6000620002208782880162000197565b94505060206200023387828801620001dc565b9350506040620002468782880162000197565b9250506060620002598782880162000197565b91505092959194509250565b61117f80620002756000396000f3fe6080604052600436106100f75760003560e01c806377fbc4ae1161008a578063bcead63e11610059578063bcead63e1461034c578063e740f77014610377578063ed2cee9e14610393578063fcce4883146103be576100fe565b806377fbc4ae146102805780639d0e5fd6146102bd578063aa929380146102e6578063b848de351461030f576100fe565b80634dd4acaf116100c65780634dd4acaf1461019e5780635bf8633a146101db5780635d19e56c146102065780635eed5fff14610243576100fe565b806308551a531461010357806312065fe01461012e57806314a72feb146101595780631502b23b14610182576100fe565b366100fe57005b600080fd5b34801561010f57600080fd5b506101186103fb565b6040516101259190610cf3565b60405180910390f35b34801561013a57600080fd5b50610143610421565b6040516101509190610d27565b60405180910390f35b34801561016557600080fd5b50610180600480360381019061017b9190610d73565b610429565b005b61019c60048036038101906101979190610dde565b610495565b005b3480156101aa57600080fd5b506101c560048036038101906101c09190610d73565b61066a565b6040516101d29190610e54565b60405180910390f35b3480156101e757600080fd5b506101f061069d565b6040516101fd9190610e54565b60405180910390f35b34801561021257600080fd5b5061022d60048036038101906102289190610d73565b6106c3565b60405161023a9190610d27565b60405180910390f35b34801561024f57600080fd5b5061026a60048036038101906102659190610d73565b6106db565b6040516102779190610e8a565b60405180910390f35b34801561028c57600080fd5b506102a760048036038101906102a29190610d73565b6106fb565b6040516102b49190610d27565b60405180910390f35b3480156102c957600080fd5b506102e460048036038101906102df9190610ed1565b610713565b005b3480156102f257600080fd5b5061030d60048036038101906103089190610d73565b6107d2565b005b34801561031b57600080fd5b5061033660048036038101906103319190610f11565b610b53565b6040516103439190610e8a565b60405180910390f35b34801561035857600080fd5b50610361610b82565b60405161036e9190610e54565b60405180910390f35b610391600480360381019061038c9190610d73565b610ba6565b005b34801561039f57600080fd5b506103a8610c6c565b6040516103b59190610e54565b60405180910390f35b3480156103ca57600080fd5b506103e560048036038101906103e09190610d73565b610c92565b6040516103f29190610e8a565b60405180910390f35b600260009054906101000a900473ffffffffffffffffffffffffffffffffffffffff1681565b600047905090565b60016009600083815260200190815260200160002060003373ffffffffffffffffffffffffffffffffffffffff1673ffffffffffffffffffffffffffffffffffffffff16815260200190815260200160002060006101000a81548160ff02191690831515021790555050565b600260009054906101000a900473ffffffffffffffffffffffffffffffffffffffff1673ffffffffffffffffffffffffffffffffffffffff163373ffffffffffffffffffffffffffffffffffffffff1614610525576040517f08c379a000000000000000000000000000000000000000000000000000000000815260040161051c90610fae565b60405180910390fd5b600360009054906101000a900473ffffffffffffffffffffffffffffffffffffffff1673ffffffffffffffffffffffffffffffffffffffff166323b872dd3330876040518463ffffffff1660e01b815260040161058493929190610fce565b600060405180830381600087803b15801561059e57600080fd5b505af11580156105b2573d6000803e3d6000fd5b5050505060016004600086815260200190815260200160002060006101000a81548160ff021916908315150217905550826005600086815260200190815260200160002081905550816007600086815260200190815260200160002060006101000a81548173ffffffffffffffffffffffffffffffffffffffff021916908373ffffffffffffffffffffffffffffffffffffffff16021790555080600660008681526020019081526020016000208190555050505050565b60076020528060005260406000206000915054906101000a900473ffffffffffffffffffffffffffffffffffffffff1681565b600360009054906101000a900473ffffffffffffffffffffffffffffffffffffffff1681565b60066020528060005260406000206000915090505481565b60086020528060005260406000206000915054906101000a900460ff1681565b60056020528060005260406000206000915090505481565b600160009054906101000a900473ffffffffffffffffffffffffffffffffffffffff1673ffffffffffffffffffffffffffffffffffffffff163373ffffffffffffffffffffffffffffffffffffffff16146107a3576040517f08c379a000000000000000000000000000000000000000000000000000000000815260040161079a90611077565b60405180910390fd5b806008600084815260200190815260200160002060006101000a81548160ff0219169083151502179055505050565b6008600082815260200190815260200160002060009054906101000a900460ff166107fc57600080fd5b6009600082815260200190815260200160002060006007600084815260200190815260200160002060009054906101000a900473ffffffffffffffffffffffffffffffffffffffff1673ffffffffffffffffffffffffffffffffffffffff1673ffffffffffffffffffffffffffffffffffffffff16815260200190815260200160002060009054906101000a900460ff1661089657600080fd5b600960008281526020019081526020016000206000600260009054906101000a900473ffffffffffffffffffffffffffffffffffffffff1673ffffffffffffffffffffffffffffffffffffffff1673ffffffffffffffffffffffffffffffffffffffff16815260200190815260200160002060009054906101000a900460ff1661091f57600080fd5b6009600082815260200190815260200160002060008060009054906101000a900473ffffffffffffffffffffffffffffffffffffffff1673ffffffffffffffffffffffffffffffffffffffff1673ffffffffffffffffffffffffffffffffffffffff16815260200190815260200160002060009054906101000a900460ff166109a757600080fd5b60056000828152602001908152602001600020544710156109c757600080fd5b60006004600083815260200190815260200160002060006101000a81548160ff0219169083151502179055506000600260009054906101000a900473ffffffffffffffffffffffffffffffffffffffff1673ffffffffffffffffffffffffffffffffffffffff1647604051610a3b906110c8565b60006040518083038185875af1925050503d8060008114610a78576040519150601f19603f3d011682016040523d82523d6000602084013e610a7d565b606091505b5050905080610a8b57600080fd5b600360009054906101000a900473ffffffffffffffffffffffffffffffffffffffff1673ffffffffffffffffffffffffffffffffffffffff166323b872dd306007600086815260200190815260200160002060009054906101000a900473ffffffffffffffffffffffffffffffffffffffff16856040518463ffffffff1660e01b8152600401610b1d93929190610fce565b600060405180830381600087803b158015610b3757600080fd5b505af1158015610b4b573d6000803e3d6000fd5b505050505050565b60096020528160005260406000206020528060005260406000206000915091509054906101000a900460ff1681565b60008054906101000a900473ffffffffffffffffffffffffffffffffffffffff1681565b806007600082815260200190815260200160002060009054906101000a900473ffffffffffffffffffffffffffffffffffffffff1673ffffffffffffffffffffffffffffffffffffffff163373ffffffffffffffffffffffffffffffffffffffff1614610c48576040517f08c379a0000000000000000000000000000000000000000000000000000000008152600401610c3f90611129565b60405180910390fd5b6006600083815260200190815260200160002054341015610c6857600080fd5b5050565b600160009054906101000a900473ffffffffffffffffffffffffffffffffffffffff1681565b60046020528060005260406000206000915054906101000a900460ff1681565b600073ffffffffffffffffffffffffffffffffffffffff82169050919050565b6000610cdd82610cb2565b9050919050565b610ced81610cd2565b82525050565b6000602082019050610d086000830184610ce4565b92915050565b6000819050919050565b610d2181610d0e565b82525050565b6000602082019050610d3c6000830184610d18565b92915050565b600080fd5b610d5081610d0e565b8114610d5b57600080fd5b50565b600081359050610d6d81610d47565b92915050565b600060208284031215610d8957610d88610d42565b5b6000610d9784828501610d5e565b91505092915050565b6000610dab82610cb2565b9050919050565b610dbb81610da0565b8114610dc657600080fd5b50565b600081359050610dd881610db2565b92915050565b60008060008060808587031215610df857610df7610d42565b5b6000610e0687828801610d5e565b9450506020610e1787828801610d5e565b9350506040610e2887828801610dc9565b9250506060610e3987828801610d5e565b91505092959194509250565b610e4e81610da0565b82525050565b6000602082019050610e696000830184610e45565b92915050565b60008115159050919050565b610e8481610e6f565b82525050565b6000602082019050610e9f6000830184610e7b565b92915050565b610eae81610e6f565b8114610eb957600080fd5b50565b600081359050610ecb81610ea5565b92915050565b60008060408385031215610ee857610ee7610d42565b5b6000610ef685828601610d5e565b9250506020610f0785828601610ebc565b9150509250929050565b60008060408385031215610f2857610f27610d42565b5b6000610f3685828601610d5e565b9250506020610f4785828601610dc9565b9150509250929050565b600082825260208201905092915050565b7f4f6e6c792073656c6c65722063616e2063616c6c2074686973206d6574686f64600082015250565b6000610f98602083610f51565b9150610fa382610f62565b602082019050919050565b60006020820190508181036000830152610fc781610f8b565b9050919050565b6000606082019050610fe36000830186610e45565b610ff06020830185610e45565b610ffd6040830184610d18565b949350505050565b7f4f6e6c7920696e73706563746f722063616e2063616c6c2074686973206d657460008201527f686f640000000000000000000000000000000000000000000000000000000000602082015250565b6000611061602383610f51565b915061106c82611005565b604082019050919050565b6000602082019050818103600083015261109081611054565b9050919050565b600081905092915050565b50565b60006110b2600083611097565b91506110bd826110a2565b600082019050919050565b60006110d3826110a5565b9150819050919050565b7f4f6e6c792062757965722063616e2063616c6c2074686973206d6574686f6400600082015250565b6000611113601f83610f51565b915061111e826110dd565b602082019050919050565b6000602082019050818103600083015261114281611106565b905091905056fea2646970667358221220de6ee2f789ba354d73745b017df2dbb0e7bb429739ea70233c23420e8245575064736f6c63430008110033",
    "linkReferences": {},
    "deployedLinkReferences": {}
}